S0100000756E7469746C65642E73726563AB
S31508000000A01100209F2900089D2900089D290008A5
S315080000109D2900089D2900089D2900080000000068
S31508000020000000000000000000000000A11B0008FE
S315080000309D29000800000000A91B0008B11B000844
S315080000409D2900089D2900089D2900089D2900086A
S315080000509D2900089D2900089D2900089D2900085A
S315080000609D2900089D2900089D2900089D2900084A
S315080000709D2900089D2900089D2900089D2900083A
S315080000809D2900089D2900089D29000800000000F8
S315080000900000000000000000000000009D29000884
S315080000A09D2900089D2900089D2900089D2900080A
S315080000B09D2900089D2900089D2900089D290008FA
S315080000C09D2900089D2900089D2900089D290008EA
S315080000D09D2900089D2900089D29000800000000A8
S315080000E05D2900089D2900089D29000800000000D8
S315080000F00000000000000000000000009D29000824
S31508000100000000009D2900089D2900089D29000877
S3150800011000000000000000000000000000000000D1
S315080001209D2900089D2900089D2900089D29000889
S315080001309D290008000000000000000000000000E3
S315080001400000000000000000000000009D290008D3
S315080001509D2900089D2900089D2900089D29000859
S315080001609D2900089D2900080000000000000000E5
S315080001700000000000000000000000000000000071
S31508000180000000009D290008000000000000000093
S315080001909D2900089D29000878B585B00C9C002C7F
S315080001A010D00B9D002D0DD00A9E256300250395C2
S315080001B0029404AD0195009600F009F8200000F0BD
S315080001C04FF801E000200490049806B070BD2DE9B0
S315080001D0F84305001E000A9F386B00EB8200B0F159
S315080001E004085FEAD8085FEAC808002200E0521C43
S315080001F00A2A07D2885C07EB020383F83400885C76
S315080002000028F4D1DDF82090002087F83D00B9F1E8
S31508000210050F01D35FF00409099CC7F82C90C7F8AD
S31508000220409000207864381D00F025FC17F118006E
S3150800023000F021FC3F61D9F10509C7F818907F62E3
S315080002400020B864002087F84C0032002900404698
S3150800025000F04EFC3860002C00D02760BDE8F18322
S3150800026038B5040000F0A4FCDFF8E4160868401C62
S315080002700860DFF8E0562868002806D12C60086870
S3150800028001280DD100F07EFA0AE0DFF8CC060068F6
S31508000290002805D1E06A2968C96A884200D32C601B
S315080002A0DFF8B8060168491C0160DFF8B4160A6869
S315080002B00123E06A83401A430A60211DDFF8A42659
S315080002C0E36A1420434302EB030000F0D7FB00F077
S315080002D080FCDFF88406006800280DD02868C06A0C
S315080002E0E16A884208D25FF08050DFF8801608601D
S315080002F0BFF34F8FBFF36F8F31BD10B504000020D9
S31508000300002C0AD0DFF87006006800F053F80021C8
S31508000310200000F035FB00F053F8002808D15FF004
S315080003208050DFF848160860BFF34F8FBFF36F8F12
S3150800033010BD10B586B0002004900020039005AAD1
S3150800034003A904A800F053FBDFF8C44604980290FA
S3150800035003980190002000900023059ADFF8B41650
S315080003600FF21940FFF718FF20602068002801D017
S31508000370012000E00020012801D100F07DFC0128C1
S3150800038016D1502080F31188BFF34F8FBFF36F8FBC
S315080003905FF0FF30DFF8801608600120DFF8B81537
S315080003A008600020DFF87416086000F0BDFBFFE760
S315080003B006B010BDDFF8C0050168491C016070472A
S315080003C070B500240025DFF8AC65306800F0F0FB56
S315080003D03068401E30603068002855D1DFF8700557
S315080003E00068002826D14FE0C868C46814F11800D0
S315080003F000F06BFB201D00F068FBDFF864150A6847
S315080004000123E06A83401A430A60211DDFF8542558
S31508000410E36A1420434302EB030000F02FFBE06A73
S31508000420DFF830150968C96A884203D30120DFF866
S31508000430F0150860DFF8D41508680028D4D1002C18
S3150800044001D000F0C7F9DFF8DC653468002C0CD061
S3150800045000F022F8002803D00120DFF8C415086050
S31508000460641E002CF4D100203060DFF8B405006863
S31508000470002809D001255FF08050DFF8F0140860E5
S31508000480BFF34F8FBFF36F8F00F0A3FB280070BD3B
S31508000490DFF8880500687047F8B50025DFF8D4044A
S315080004A0006800285ED1DFF8C0040468641C046094
S315080004B0002C0FD1DFF8740501680168DFF8702594
S315080004C0136803601160DFF86C050168491C016058
S315080004D000F080F9DFF840653068844231D323E0C4
S315080004E0381D00F0F2FAB86A002803D017F1180090
S315080004F000F0EBFADFF868140A680123F86A83400B
S315080005001A430A60391DDFF85C24FB6A142043434A
S3150800051002EB030000F0B2FAF86ADFF8381409684B
S31508000520C96A884200D30125DFF800150868006803
S31508000530002813D00868C068C76878688442CFD294
S315080005403060DFF82014DFF80C040068C26A142053
S315080005504243885802280AD3012508E05FF0FF3095
S315080005603060EEE7DFF8BC040168491C0160DFF87B
S31508000570B0040068002800D001252800F2BDDFF885
S31508000580F4030068002804D00120DFF894140860FA
S3150800059020E00020DFF888140860DFF8C40300684C
S315080005A0B0FA80F1D1F11F01DFF8B82314204143D6
S315080005B002EB0100416849684160416810F1080290
S315080005C0914202D14168496841604068C068DFF8D5
S315080005D084130860704710B50C00DFF84C140968DE
S315080005E0183100F057FA0121200000F0C9F910BDB2
S315080005F010B51400DFF880231268DFF82C2451F0B8
S315080006000041136899611168183100F037FA012121
S31508000610200000F0B5F910BD38B50D001400DFF85C
S3150800062008140968183100F029FA002C01D05FF087
S31508000630FF352100280000F0A3F931BD10B5C068C8
S31508000640C46814F1180000F040FADFF82C030068BB
S31508000650002815D1201D00F038FADFF804130A68BF
S315080006600123E06A83401A430A60211DDFF8F42259
S31508000670E36A1420434302EB030000F0FFF905E0A8
S3150800068014F11801DFF8840300F0F8F9DFF8C40262
S315080006900068C06AE16A884205D201200121DFF8B4
S315080006A08023116000E0002010BD10B5DFF8C822D5
S315080006B0126851F000410160C46800F006FA201D76
S315080006C000F003FADFF898120A680123E06A83400B
S315080006D01A430A60211DDFF88C22E36A142043437B
S315080006E002EB030000F0CAF9DFF868020068C06A86
S315080006F0E16A884205D201200121DFF8242311602E
S3150800070000E0002010BDDFF82C1309680160DFF84F
S315080007100C1309684160704738B505000C0000F0F5
S3150800072047FADFF844020168206810F1010F01D189
S3150800073000241AE0DFF8FC0200682A68904204D018
S315080007406868814201D301240FE06868081A2268A4
S31508000750904209D22068411A686841182160280029
S31508000760FFF7D1FF002400E0012400F032FA200050
S3150800077032BD0120DFF8A8120860704780B500F086
S3150800078028F8FCE738B5002408E0DFF8D80114217A
S3150800079001FB04F1084400F05FF9641C052CF4D34E
S315080007A0DFF89442200000F057F9DFF8905228004D
S315080007B000F052F9DFF8540200F04EF9DFF8B00104
S315080007C000F04AF9DFF864020460DFF864020560A5
S315080007D031BD7047DFF8541208680068002805D153
S315080007E05FF0FF30DFF83012086006E00868C0687E
S315080007F0C0684068DFF820120860704756480068ED
S31508000800002801D1012007E0DFF86C010068002804
S3150800081001D1022000E000207047F8B50400002846
S315080008203FD04C4FE06A3968C96A884239D2A06914
S31508000830002804D43868C06AD0F10500A061DFF842
S315080008403C5114266069E16A71432944884225D1DE
S31508000850201D00F03AF900280CD1E06A70432858A8
S31508000860002807D1DFF8D8110A680123E06A834017
S315080008709A430A603868C06AE062DFF8C4110A68F9
S315080008800123E06A83401A430A60211DE06A06FBD9
S3150800089000F605EB060000F0F1F802E03868C06AD9
S315080008A0E062F1BD10B504000021002837D02948C0
S315080008B00068606C401E6064E06A226C90422ED02C
S315080008C0606C00282BD1201D00F0FFF800280ED1FF
S315080008D0DFF8A810E26A142042438858002806D197
S315080008E01F490A680123E06A83409A430A60206C1C
S315080008F0E062E06AD0F10500A06119490A6801239F
S31508000900E06A83401A430A60211DDFF87020E36A13
S315080009101420434302EB030000F0B0F8012108005D
S3150800092010BDDFF80411086880690A680968C96A91
S31508000930D1F1050191617047DFF8EC1008680028CD
S3150800094003D00868426C521C42640868704700006D
S31508000950C40E0020B80E0020D00E0020E00E0020A5
S31508000960CC0E00201C0B0020C80E002004ED00E071
S315080009701C0E0020EC0E0020EC0E00201C0B0020A4
S31508000980F8B505000C0025480668274F3868001D8D
S3150800099000F09BF8002807D1386829490A6801231E
S315080009A0C06A83409A430A6015F1010F07D1002CEB
S315080009B005D03868011D234800F060F816E0AD1927
S315080009C038684560B54206D23868011D184800687F
S315080009D000F060F80AE03868011D1448006800F065
S315080009E059F80D4801688D4200D20560F1BD164BD5
S315080009F0036016480860802010607047144B036037
S31508000A00144808604FF4807010607047080E002084
S31508000A10E80E0020442B0008E40E0020C80E002033
S31508000A20D80E0020D40E0020B80E0020BC0E0020E0
S31508000A30C00E0020DC0E0020E00D0020F40D002082
S31508000A40CC0E00201C0E0020380C002008060020C2
S31508000A50880C00200800002010F1080141605FF0B2
S31508000A60FF31816010F10801C16010F108010161D0
S31508000A7000210160704700210161704742684A60A1
S31508000A8093688B6093685960916008610168491C96
S31508000A900160704710B40B6813F1010F01D10269A8
S31508000AA007E010F1080200E0526854682468A3427F
S31508000AB0FAD253684B604B6899608A605160086146
S31508000AC00168491C016010BC704701698268436867
S31508000AD09A60426883685A604A68824201D182688D
S31508000AE04A60002202610868401E0860086870476C
S31508000AF0001F5FF080730360001F4908490001600A
S31508000B00001F0FF21501016014380260001F7FF004
S31508000B100201016020387047502080F31188BFF326
S31508000B204F8FBFF36F8FFEE7E0B53F480168006857
S31508000B303E4801780191FF21017001788DF8001077
S31508000B409DF8001011F05001394A117039490722F1
S31508000B500A6007E00A68521E0A609DF800205200E3
S31508000B608DF800209DF800201206F3D40A681202B8
S31508000B700A600A6812F4E0620A60019901702E4858
S31508000B80016851F470010160016851F0704101601B
S31508000B9000F05EF800202949086000F08DFA284820
S31508000BA0016851F04041016000F07AFA00200EBD5C
S31508000BB0502080F31188BFF34F8FBFF36F8F1F4804
S31508000BC00168491C01600068012801D11D480068B8
S31508000BD070471A480168491E01600068002802D15A
S31508000BE0002080F31188704780B5502080F3118863
S31508000BF0BFF34F8FBFF36F8FFFF74EFC002803D06C
S31508000C005FF080500F490860002080F3118801BD0D
S31508000C1000000000EFF30580102802D30A4909688E
S31508000C20085C0A480068704700ED00E000E400E050
S31508000C30F90E0020980E002020ED00E000000020AC
S31508000C4034EF00E004ED00E05C2B00080CED00E05A
S31508000C50064800684FF47A71B0FBF1F0401E04496B
S31508000C600860072003490860704700BF0400002099
S31508000C7014E000E010E000E038B586B0002400F08B
S31508000C8086F9DFF87803006800281DD00020049054
S31508000C900020039005AA03A904A8FFF7AFFEDFF812
S31508000CA06053049802900398019002200090002354
S31508000CB0059ADFF850130FF2B100FFF76DFA2860B6
S31508000CC02868002800D00124200007B030BD7FB571
S31508000CD004001D000020DFF824633368002B1CD0B5
S31508000CE0009101920294062911DAFFF787FD02287E
S31508000CF006D1089A00236946306800F054FA0CE0D9
S31508000D00002300226946306800F04DFA05E000230A
S31508000D102A006946306800F0E7FA04B070BD7CB571
S31508000D2004000D00DFF8E0020068C068C668301DE0
S31508000D30FFF7CBFEF069012810D123002A00B1691C
S31508000D400919300000F078F8002807D00020009034
S31508000D500023220000213000FFF7B9FF3000716A36
S31508000D60884773BD0000000080B5684600F03EF86D
S31508000D70009900F003F800F07EF8F6E77CB5050068
S31508000D800C00FFF717FB684600F043F806000098CA
S31508000D90002828D1002C08D1AE4206D3FFF710FB55
S31508000DA031002800FFF7BBFF1FE0002C07D097484B
S31508000DB000680068002801D1012400E00024220010
S31508000DC0AD1B29008D48006800F07EFCFFF7F8FA95
S31508000DD000280AD15FF080508D490860BFF34F8F15
S31508000DE0BFF36F8F01E0FFF7EBFA73BD864A116810
S31508000DF00968002901D1012100E00021C9B201607A
S31508000E000068002803D11068C068006800E0002068
S31508000E10704770B50400FFF73BFB05007D4E306850
S31508000E20854204D200F084F80120206001E0002009
S31508000E3020603560280070BD10B50024416000614F
S31508000E408A420BD3D21A81698A4201D3012410E05F
S31508000E50011D6E480068FFF71DFE0AE09A4203D29C
S31508000E60994201D3012404E0011D67480068FFF791
S31508000E7011FE200010BD10B586B019E0029B0A00CD
S31508000E800299A06941182000FFF7D6FF00280FD065
S31508000E902000616A8847E069012809D1002000908E
S31508000EA00023029AA069821800212000FFF70FFF8D
S31508000EB00023002201A95148006800F064FA0028BE
S31508000EC034D00198002804D502AA9168506812689F
S31508000ED0904701980028EBD4039C6069002802D04B
S31508000EE0201DFFF7F2FD05A8FFF793FF0100019803
S31508000EF00028C3D00228C1D0C0D304280AD008D3FA
S31508000F000628BBD010D3082803D0B7D3092801D0A8
S31508000F100BE0CDE70298A0610B000A00A069411812
S31508000F202000FFF789FFC3E7C2E7C1E706B010BD97
S31508000F307CB505E070603661311D2068FFF7AAFDB3
S31508000F40314C2068006800281BD02068C0680568F6
S31508000F502068C068C668301DFFF7B7FD3000716AA3
S31508000F608847F0690128EBD1B06940198542E1D379
S31508000F700020009000232A0000213000FFF7A7FE7A
S31508000F80DEE7206821490A682260086073BD7CB5DF
S31508000F90FFF70EFE194C206800281BD11E4D2800AD
S31508000FA0FFF75AFD1D4E3000FFF756FD164805603F
S31508000FB01648066000200090194B1A4A10210A208C
S31508000FC000F0C7F820602068002803D0164920687A
S31508000FD000F050FBFFF7FDFD73BD1FB51C007FF049
S31508000FE001030093019002910392002322006946AF
S31508000FF00248006800F078F904B010BDAC0E002075
S31508001000B00E0020342B0008A40E0020A80E0020E5
S3150800101004ED00E0B40E0020B80D0020CC0D002031
S31508001020D80C0020080A00203C2B0008EFF30980A2
S31508001030BFF36F8F244B1A681EF0100F08BF20ED00
S31508001040108A20E9F04F106008B44FF0500080F382
S315080010501188BFF34F8FBFF36F8FFFF790FA4FF0EA
S31508001060000080F3118808BC19680868B0E8F04FDA
S315080010701EF0100F08BFB0EC108A80F30988BFF382
S315080010806F8F7047104B19680868B0E8F04F80F307
S315080010900988BFF36F8F4FF0000080F311887047FF
S315080010A00A480068006880F3088862B661B6BFF32C
S315080010B04F8FBFF36F8F00DFDFF81400016841F42C
S315080010C07001016070470000B80E002008ED00E0CE
S315080010D088ED00E038B505000C00FFF769FD2968C2
S315080010E0EA6B286C424301EB020068600020A863A3
S315080010F02868A8602968EA6B521E286C424301EBEF
S315080011000200E8605FF0FF3085F8440085F8450086
S31508001110002C12D12869002817D015F11000FFF706
S315080011208DFA002811D05FF08050DFF8941508601A
S31508001130BFF34F8FBFF36F8F07E015F11000FFF76E
S315080011408BFC15F12400FFF787FCFFF742FD012011
S3150800115032BD1CB51C00002A01D0002901D001238C
S3150800116000E00023002A01D1002901D1012300E073
S31508001170002348230093009B002C04D0049B009472
S31508001180DBB200F002F8200016BD80B5029B0029EC
S3150800119001D11B6000E01A60D863196401211800A8
S315080011A0FFF798FF01BDF7B506000D001F000024E4
S315080011B0002D02D1306C002801D1012000E000206A
S315080011C0022F02D1F06B012801D1012000E0002096
S315080011D0FFF714FB002802D10298002801D101204C
S315080011E032E0002030E0029800285CD0002C03D1C1
S315080011F06846FFF788FA0124FFF7EBFCFFF7DAF8F1
S31508001200FFF7D6FC96F9440010F1010F02D1002031
S3150800121086F8440096F9450010F1010F02D1002026
S3150800122086F84500FFF7D5FC02A96846FFF774FA69
S31508001230002852D1300000F00EFA002837D13000CD
S3150800124000F0C4F9FFF7BCF8FFF7B2FCB06BF16B1E
S31508001250884201D3022FC6D13A002900300000F097
S315080012605DF9716A00290FD016F12400FFF7E6F937
S31508001270002814D05FF08050DFF844140860BFF3EC
S315080012804F8FBFF36F8F0AE0002808D05FF08050B9
S31508001290DFF82C140860BFF34F8FBFF36F8FFFF78B
S315080012A098FC01201FE0FFF794FC00201BE0029940
S315080012B016F11000FFF78FF9300000F087F9FFF7F5
S315080012C07FF80028C0D15FF08050DFF8F41308607B
S315080012D0BFF34F8FBFF36F8FB6E7300000F076F994
S315080012E0FFF76EF80020FEBD2DE9F84307000D0054
S315080012F014009846002D02D1386C002801D101202F
S3150800130000E00020B8F1020F02D1F86B012801D1E4
S31508001310012000E00020FFF77DFCEFF31186502046
S3150800132080F31188BFF34F8FBFF36F8FB86BF96BDC
S31508001330884202D3B8F1020F20D197F94590424668
S315080013402900380000F0EAF848465FF0FF3140B25D
S3150800135088420DD1786A00280ED017F12400FFF7CD
S315080013606DF9002808D0002C06D00120206003E083
S3150800137019F1010987F84590012000E0002086F35D
S315080013801188BDE8F2832DE9F64182B080460E0049
S315080013901F000024002E03D1D8F84000002801D1F0
S315080013A0012000E00020FFF729FA002802D103985F
S315080013B0002801D1012006E0002004E0404600F0A4
S315080013C005F9FEF7FDFFFFF7F3FBD8F83850002DB7
S315080013D006D10398002843D1FFF7FBFB002096E0CF
S315080013E0D8F80C403100404600F0DBF8002F1ED13B
S315080013F06D1EC8F83850D8F80000002803D1FFF74A
S315080014009BFAC8F80400D8F81000002824D018F170
S315080014101000FFF713F900281ED05FF08050DFF8A0
S31508001420A0120860BFF34F8FBFF36F8F14E0C8F8A0
S315080014300C40D8F8240000280ED018F12400FFF735
S31508001440FDF8002808D05FF08050DFF874120860B5
S31508001450BFF34F8FBFF36F8FFFF7BBFB012056E03B
S31508001460002C03D16846FFF74EF90124FFF7B1FBBC
S31508001470FEF7A0FFFFF79CFB98F9440010F1010F57
S3150800148002D1002088F8440098F9450010F1010FB0
S3150800149002D1002088F84500FFF79BFB03A96846A0
S315080014A0FFF73AF9002826D1404600F0C6F800288A
S315080014B084D0D8F80000002807D1FFF779FBD8F8C0
S315080014C00400FFF7AAF9FFF784FB039918F1240033
S315080014D0FFF781F8404600F079F8FEF771FF00281B
S315080014E07FF471AF5FF0805075490860BFF34F8F86
S315080014F0BFF36F8F67E7404600F068F8FEF760FFB6
S31508001500404600F09AF800283FF45DAF002004B08A
S31508001510BDE8F08180B500F0BFF801BD2DE9F041C6
S31508001520060015000027B46B306C002809D1306816
S31508001530002831D17068FFF7B5F907000020706000
S315080015402AE0002D0FD1326CB568280000F0FEF8AD
S31508001550B068316C0844B060B068716888421BD3C3
S315080015603068B06018E0326CD6F80C80404600F05F
S31508001570EDF8F068316C49420844F060F06831686B
S31508001580884204D27068316C49420844F060022DE2
S3150800159002D1002C00D0641E641CB4633800BDE878
S315080015A0F08110B50C00016C00290ED0C168026CE0
S315080015B01144C160C1684268914201D30168C160A3
S315080015C0026CC168200000F0C1F810BD70B50400B7
S315080015D0FFF7EEFA94F9455008E014F12400FFF7F6
S315080015E02DF8002801D0FFF7C4F86D1E280040B278
S315080015F0012802DB606A0028EFD15FF0FF3584F826
S315080016004550FFF7E6FAFFF7D3FA94F9446008E085
S3150800161014F11000FFF712F8002801D0FFF7A9F817
S31508001620761E300040B2012802DB20690028EFD17F
S3150800163084F84450FFF7CDFA70BD10B50400FFF7E3
S31508001640B7FAA06B002801D1012400E00024FFF7B7
S31508001650C0FA200010BD10B50400FFF7A9FAA06B68
S31508001660E16B884201D1012400E00024FFF7B1FABA
S31508001670200010BD10B4002300E05B1C082B09D223
S31508001680104C54F83320002AF7D144F8331004EBF1
S31508001690C301486010BC7047002100E0491C0829B6
S315080016A00CD2084A02EBC1035B688342F6D10020DC
S315080016B042F83100002002EBC10148607047000083
S315080016C004ED00E0200D002070B504000D001600A2
S315080016D0FFF76EFA94F9440010F1010F02D10020C9
S315080016E084F8440094F9450010F1010F02D1002056
S315080016F084F84500FFF76DFAA06B002805D1320083
S31508001700290014F12400FEF787FF2000FFF75EFF8B
S3150800171070BD30B4002513E050F8042BD30744BF3E
S31508001720A9F101039A18091F042942F8045BFAD2A1
S3150800173013468C0744BF15809B1CC90748BF1D70FC
S3150800174050F8041B0029E7D130BC704762B38B07F9
S3150800175008D0521E11F8013B00F8013B00F0248026
S315080017608B07F6D1830740F0208000BF103A07D3D5
S3150800177030B4B1E83810103AA0E83810F9D230BCC5
S31508001780530724BFB1E80810A0E8081044BF51F871
S31508001790043B40F8043BD20724BF31F8022B20F85B
S315080017A0022B44BF0B7803707047121F17D35B00D8
S315080017B009D151F8043B20F8023B1B0C121F20F8F4
S315080017C0023BF6D20BE051F8043B00F8013B1B0A3A
S315080017D020F8023B1B0C121F00F8013BF3D238BF5E
S315080017E0121D521E24BF11F8013B00F8013BF8D820
S315080017F07047000010B50400002C04D000202060BB
S31508001800201DFFF729F9200010BD2DE9F04788466D
S3150800181015001E00089C07005FF0000A0020FEF76E
S31508001820EDFF002801D1002C01D1012000E00020A5
S31508001830FEF7C0FDD7F8009032004146484600F052
S31508001840A2F8002807D00024002D17D0386830EAFF
S315080018500800386012E0002C10D0002D01D05AF094
S31508001860807A002E01D05AF0806A22005AEA080AC5
S315080018705146381DFEF7BCFE5FF00009FEF7A0FDD5
S31508001880002C26D0002807D15FF080501249086046
S31508001890BFF34F8FBFF36F8FFFF743F881465FEAB9
S315080018A0891014D4FFF784F9D7F80090320041461E
S315080018B0484600F068F8002806D0002D04D038689D
S315080018C030EA0808C7F80080FFF783F9002029F0F6
S315080018D07F494846BDE8F08704ED00E02DE9F04170
S315080018E004000F000025002014F1040818F108066A
S315080018F0FEF760FDD8F80C2020680743276023E030
S31508001900D4F800C01CEA010C8C4511D101200FE067
S3150800191057681168002011F07F4321F07F415FEA84
S31508001920431CEDD4D4F800C011EA0C0F00D00120F6
S31508001930002808D0D80100D50D43216851F0007160
S315080019401000FEF7B2FE3A00B242E1D1206830EA52
S3150800195005052560FEF734FD2068BDE8F08110B561
S31508001960041DFEF727FD04E05FF00071E068FEF74E
S315080019709CFE20680028F7D1FEF722FD10BD80B531
S31508001980FFF7ACFF01BD03000020002A03D10B427C
S3150800199005D0012003E00B408B4200D1012070479F
S315080019A010B501224FF4FA713B4800F0A1F83B4C00
S315080019B022003B4900F0A8F83A4800F0ABF83A484C
S315080019C000F0B4F8394800F0BDF82200384900F0B4
S315080019D09BF8384800F0C5F810BD012210F01F0129
S315080019E08A40354940B2400941F82020704780B501
S315080019F03248016851F00101016001688907FCD588
S31508001A002F4801680160016811F00C0FFBD12D48C1
S31508001A10016851F0050101602B48016851F48041C5
S31508001A2001602A48016851F480610160284801680C
S31508001A3041F4802151F4823101602648016851F44D
S31508001A40005101602448016851F40051016023489F
S31508001A50016851F0200101602820FFF7BEFF012030
S31508001A6002BD80B51E4800F08BF8802100910A233C
S31508001A701C4A01000B4800F084F81B4800F080F867
S31508001A80802100911E23194A0100074800F079F8C1
S31508001A9000F082F8002002BD600D0020F40E002040
S31508001AA0AD2A0008800B0020DC0B0020A80A0020C5
S31508001AB09F2A0008A00D002000E100E0003802403F
S31508001AC008380240303802404438024000000240DC
S31508001AD000080240083C0140003C0140143801401F
S31508001AE0080800202C2B000808040020082B0008F2
S31508001AF010B5040000202060E1612262201D00F07C
S31508001B0082F82060200010BD0B460146184600F0FA
S31508001B10CBB8000010B50400200000F009F902480F
S31508001B202060200010BD00BF1C2B000810B5040063
S31508001B30200000F0FDF802482060200010BD00BF1C
S31508001B40EC2A000810B5040014F14C0000F0F4F873
S31508001B500200231D04210A2000F08CF820602000D2
S31508001B6010BD10B5040000F0E9F8010014F10800F2
S31508001B7000F0F4F801200021C4E90401200010BD9A
S31508001B8070471CB514001A00049B00919BB292B2D0
S31508001B90210000F011F813BD80B500F020F801BD52
S31508001BA080B500F020F801BD80B500F020F801BD31
S31508001BB080B500F020F801BD3EB505001C0006986A
S31508001BC000280BD02B1D0293019092B200922B0095
S31508001BD0A4B222001C48FEF7DFFA686537BD80B557
S31508001BE0FEF7A7FB01BD80B5FFF74CFA01BD80B52E
S31508001BF0FFF71CFA01BD80B5FEF7F6FF01BD80B5FB
S31508001C00FEF77BFB01BD80B5FFF7F4FD02BD80B58D
S31508001C100068FFF7A4FE01BD80B50A000021009107
S31508001C206B4601680A48FFF7D8F900280AD00098D9
S31508001C30002807D05FF0805004490860BFF34F8F33
S31508001C40BFF36F8F01BD00004D2B000804ED00E0C7
S31508001C507F1900081CB51C000023002C00D10023A6
S31508001C60009201220068FFF7D0FD16BD80B5FEF789
S31508001C700FFC02BD1CB50024009489B280B2FFF7A0
S31508001C8068FA16BD80B50068FFF744FC01BD000080
S31508001C9038B504460D46AC4205D020682018804762
S31508001CA0241DAC42F9D131BDF8B505460E46174696
S31508001CB0AFF300801A49086800B91A481A4A9042D0
S31508001CC02EBF002404460C300860AFF300800CB920
S31508001CD00120F2BD26606560A7600020F2BD80B5D0
S31508001CE00F49124800F001F801BDF8B50E46054641
S31508001CF037683C0004D1F1BD88470DE007463C46ED
S31508001D00AC42F8D00C3C61680800F9D02068002283
S31508001D1000286260F0D0884730688742F0D0EDE747
S31508001D20F00E0020080F0020A0100020080F002049
S31508001D3080B500F01BF802BD7047000080B5054964
S31508001D400878002804D101200870034800F012F82A
S31508001D50014802BDFA0E00209C0E002010B50400B2
S31508001D60080000F013F82060200010BD00218165EE
S31508001D707047000010B50400200000F00BF8024878
S31508001D802060200010BD00BF042B000880B500F0BD
S31508001D9005F802BD80B500F003F802BD70470000E3
S31508001DA001490160704700BFF82A000810B5040011
S31508001DB00020207000F02AF80100201D00F036F8F7
S31508001DC000F03CF8010014F1080000F02FF800F0CC
S31508001DD045F8010014F10C0000F028F800F04EF860
S31508001DE0010014F1100000F021F800F057F8010086
S31508001DF014F1140000F01AF800F060F8010014F16C
S31508001E00180000F013F8200010BD000080B5054941
S31508001E100878002804D101200870034800F05EF80D
S31508001E20014802BD020F0020680E002010B504000C
S31508001E30080000F05FF82060200010BD80B5054955
S31508001E400878002804D101200870034800F056F8E5
S31508001E50014802BD030F0020700E002080B5054919
S31508001E600878002804D101200870034800F052F8C9
S31508001E70014802BD040F0020780E002080B50549F0
S31508001E800878002804D101200870034800F04EF8AD
S31508001E90014802BD050F0020800E002080B50549C7
S31508001EA00878002804D101200870034800F04AF891
S31508001EB0014802BD060F0020880E002080B505499E
S31508001EC00878002804D101200870034800F046F875
S31508001ED0014802BD070F0020900E002010B504002F
S31508001EE0200000F047F802482060200010BD00BF1F
S31508001EF0C829000880B500F041F802BD10B50400F5
S31508001F00200000F037F802482060200010BD00BF0E
S31508001F10D829000810B50400200000F02BF8024864
S31508001F202060200010BD00BF182A000810B5040064
S31508001F30200000F01FF802482060200010BD00BFF6
S31508001F40E829000810B50400200000F013F802483C
S31508001F502060200010BD00BFF829000810B5040055
S31508001F60200000F007F802482060200010BD00BFDE
S31508001F70082A000880B500F003F802BD7047000083
S31508001F800249016000210171704700BFB8290008A5
S31508001F9070B50C0000F01CF80500002611E03100B1
S31508001FA0280000F025F800F028F809E02000C0B263
S31508001FB08642F4D23100280000F01AF800F025F81D
S31508001FC0761C280000F029F88642EFD370BD000081
S31508001FD080B505490878002804D10120087003480F
S31508001FE000F020F8014802BDFD0E0020300E00204A
S31508001FF080B5C9B200F034F802BD80B501000868A2
S31508002000096809688968884701BD80B501000868BC
S31508002010096809684968884701BD80B500F023F852
S31508002020C0B202BD10B5040000F020F8010020007F
S3150800203000F02CF800F02CF80100201D00F026F81E
S3150800204000F036F8010014F1080000F01FF800F05F
S315080020503FF8010014F10C0000F018F8200010BD3C
S3150800206000EB8100704704207047000080B50549E1
S315080020700878002804D101200870034800F038F8D1
S31508002080014802BDFE0E0020480E00200160704780
S3150800209080B505490878002804D10120087003484E
S315080020A000F034F8014802BDFF0E0020500E002053
S315080020B080B505490878002804D10120087003482E
S315080020C000F032F8014802BD000F0020580E00202B
S315080020D080B505490878002804D10120087003480E
S315080020E000F030F8014802BD010F0020600E002004
S315080020F010B504000349200000F032F802482060B9
S31508002100200010BD00000240D427000810B50400C6
S315080021100349200000F028F802482060200010BD7E
S31508002120000802400C28000810B5040003492000E6
S3150800213000F01EF802482060200010BD000802408A
S315080021404428000810B504000349200000F008F8E8
S3150800215002482060200010BD0008024060280008E0
S3150800216080B500F009F802BD80B500F013F802BD8D
S3150800217080B500F01DF802BD38B504000D0020003A
S3150800218000F024F8024820606560200032BD00BFD8
S31508002190B827000838B504000D00200000F016F82E
S315080021A0024820606560200032BD00BFF0270008A5
S315080021B038B504000D00200000F008F80248206039
S315080021C06560200032BD00BF2828000880B500F0F1
S315080021D001F802BD70471FB50400200000F018F88A
S315080021E00090200000F01EF802900AE0684600F011
S315080021F023F80068019001A8FFF7FFFE684600F083
S315080022001FF802A9684600F022F80028EED11FBD83
S3150800221080B500F026F800220100684600F025F88F
S31508002220006802BD80B500F01CF80422010068466B
S3150800223000F01BF8006802BD80B500F01DF802BD6D
S3150800224010B50400200000F019F8200010BD80B574
S3150800225000F018F8002801D1012000E00020C0B2E3
S3150800226002BD80B500F017F802BD10B504002000C5
S3150800227000F012F8200010BD006870470168091DBB
S315080022800160704700680968884201D1012000E0B2
S315080022900020C0B27047704780B500F001F802BD53
S315080022A001EB8201016070471FB504002000FFF7AB
S315080022B0AFFF00902000FFF7B5FF02900AE06846DE
S315080022C0FFF7BAFF0068019001A800F00AF868460F
S315080022D0FFF7B6FF02A96846FFF7B9FF0028EED157
S315080022E01FBD80B50100086809680968C96888477C
S315080022F001BD0000433A2F55736572732F536572FB
S315080023006765792F434C696F6E50726F6A6563749F
S31508002310732F756E7469746C65642F436F6D6D6F7A
S315080023206E2F7574696C732E68707000433A2F555A
S31508002330736572732F5365726765792F434C696F9E
S315080023406E50726F6A656374732F756E7469746CF8
S3150800235065642F436F6D6D6F6E2F7574696C732E80
S3150800236068707000433A2F55736572732F53657200
S315080023706765792F434C696F6E50726F6A6563742F
S31508002380732F756E7469746C65642F436F6D6D6F0A
S315080023906E2F7574696C732E6870700038B50400FA
S315080023A0FFF716FE05002800FFF737FE2179C0B2B1
S315080023B0814201D30020207121792800FFF718FEF9
S315080023C0FFF78FFF2079401C207131BD38B5040016
S315080023D00D00202D06D315220649074800F00EF8F1
S315080023E0AFF300802068012111FA05F54540256004
S315080023F031BD00BF2C2300082C29000800B583B086
S315080024000091019202906A4604491820ABBE002842
S3150800241001D100F005F803B000BD00BF101002009E
S31508002420012000F001B8000080B5AFF30080024A31
S3150800243011001820ABBEFBE72600020038B50400E1
S31508002440FFF7C6FD05002800FFF7C5FE0021280096
S31508002450FFF7CEFDFFF7D9FD02212800FFF7C8FDDB
S31508002460FFF7D3FD0020207131BD38B50400FFF712
S31508002470AFFD05002800FFF7AEFE00212800FFF794
S31508002480B7FDFFF7C2FD01212800FFF7B1FDFFF7F1
S31508002490BCFD0020207131BD38B50400FFF798FD5A
S315080024A005002800FFF797FE02212800FFF7A0FD88
S315080024B0FFF7ABFD01212800FFF79AFDFFF7A5FD01
S315080024C00020207131BD10B504002078401C207012
S315080024D0201D00F00FF82178814201D300202070DA
S315080024E02178201D00F008F800F009F8016849680D
S315080024F0884710BD0620704700EB810070470068CA
S315080025007047000010B500F013F80400FF22002100
S31508002510064800F01DF8002802D02000FFF7D3FF78
S315080025200021200000F01BF8F0E700BF600D002036
S3150800253080B505490878002804D1012008700348A9
S31508002540FFF734FC014802BDF80E0020840D002078
S3150800255080B50B001100C269FFF77CFB02BD10B500
S315080025600C000178001DFFF7C7FFFFF7C8FF210021
S31508002570C9B202681268904710BD000038B5040059
S315080025800D00202D06D31B2205490648FFF736FF06
S31508002590AFF300802068E84010F0010032BD00BFAC
S315080025A0642300084429000838B504000D00202DCE
S315080025B006D3212205490648FFF720FFAFF300801E
S315080025C0012010FA05F5256031BD00BFF422000888
S315080025D01429000830B450F8041B79B1026843681E
S315080025E002440830DC0744BFA9F10104E31852F895
S315080025F0045B43F8045B091FF9D1ECE730BC70476C
S3150800260010B5074979441831064C7C44163404E061
S315080026100A68081D114488470146A142F8D110BD31
S31508002620140100003801000080B500F00FF800F032
S315080026301DF8002802D0044800F020F84FF49670E0
S3150800264000F021F8F1E700BF600D002080B50549CC
S315080026500878002804D101200870034800F017F80C
S31508002660014802BDFB0E0020A00E002080B5010027
S315080026700868096809680969884702BD80B5016A5A
S31508002680FFF7CAFA01BD80B5FFF7B9FA01BD10B563
S31508002690040000F007F80100200000F013F82000FD
S315080026A010BD000080B505490878002804D101202E
S315080026B00870034800F00AF8014802BDFC0E002025
S315080026C0400E002080B500F00FF802BD10B50400DA
S315080026D00349200000F00AF802482060200010BDD7
S315080026E000080240982800080160704780B500F08D
S315080026F001F802BD38B504000D002000FFF766FD9D
S31508002700024820606560200032BD00BF7C280008B2
S315080027104EF68851CEF20001086840F47000086051
S31508002720BFF34F8FBFF36F8F4FF00070E1EE100AC3
S3150800273070470000DFEFFFFF000F000008000020D1
S315080027400000000091FEFFFF0800000008040000DA
S3150800275000000020000000000500000010B5044637
S31508002760044979440E31044878440C30FFF790FA4E
S31508002770204610BDF0030000E8030000FFF737F914
S31508002780002801D0FFF73CFFAFF300800020AFF32D
S315080027900080FFF766F900F000F800F001B80000C5
S315080027A00746FFF79CFA3846FFF73EFEFBE70000B0
S315080027B0000000000000000000000000212A0008B8
S315080027C04B2A0008752A0008AD28000800000000FA
S315080027D00000000000000000212A00084B2A00081B
S315080027E0752A0008AD280008000000000000000057
S315080027F0000000002F2A0008592A0008832A00082A
S31508002800C7280008000000000000000000000000C3
S315080028102F2A0008592A0008832A0008C728000812
S315080028200000000000000000000000003D2A00082B
S31508002830672A0008912A0008E1280008000000001D
S3150800284000000000000000003D2A0008672A000872
S31508002850912A0008E1280008000000000000000096
S3150800286000000000212A00084B2A0008752A0008E3
S31508002870AD2800080000000000000000000000006D
S31508002880BB2A0008C92A0008D72A0008FB2800081E
S31508002890000000000000000000000000BB2A00083D
S315080028A0C92A0008D72A0008FB28000880B5052190
S315080028B040681030FFF762FE002801D1012000E0D1
S315080028C00020C0B202BD80B5092140681030FFF76C
S315080028D055FE002801D1012000E00020C0B202BD4B
S315080028E080B5082140681030FFF748FE002801D15E
S315080028F0012000E00020C0B202BD80B50D2140686D
S315080029001030FFF73BFE002801D1012000E000202F
S31508002910C0B202BD2873697A656F66285429202AD1
S3150800292020385529203E2062697400002873697A88
S31508002930656F66285429202A20385529203E2062AA
S31508002940697400002873697A656F66285429202AF5
S3150800295020385529203E20626974000080B54FF45E
S31508002960005003490860FFF771FE00F003F801BD47
S31508002970143C0140704710B50400FFF777F9A065CD
S31508002980200021680968884710BD10B50400FFF7C4
S315080029901FFBFFF720FC0020207110BDFEE780B565
S315080029A0AFF30080FFF7B4FEFFF7E8FE01BD0000B5
S315080029B00000000000000000212B00088B290008F9
S315080029C000000000000000009D2300088B29000875
S315080029D00000000000000000212B00083D2400082C
S315080029E00000000000000000212B00086B240008EE
S315080029F00000000000000000212B000899240008B0
S31508002A000000000000000000911F00088B29000844
S31508002A100000000000000000212B00088B29000898
S31508002A2080B5052140681830FFF7BEFD01BD80B5A9
S31508002A30092140681830FFF7B7FD01BD80B50821A8
S31508002A4040681830FFF7B0FD01BD80B51521406814
S31508002A501830FFF7A9FD01BD80B519214068183067
S31508002A60FFF7A2FD01BD80B5182140681830FFF7B1
S31508002A709BFD01BD80B5052140681430FFF7A6FC13
S31508002A8001BD80B5092140681430FFF79FFC01BDE0
S31508002A9080B5082140681430FFF798FC01BD10B5D1
S31508002AA004002000FFF7EEF8200010BD10B5040062
S31508002AB02000FFF7ACF8200010BD80B50D21406856
S31508002AC01830FFF771FD01BD80B51D21406818302B
S31508002AD0FFF76AFD01BD80B50D2140681430FFF788
S31508002AE075FC01BD00000000000000000525000877
S31508002AF000000000000000000000000000000000C8
S31508002B0000000000000000004C6564315461736BDE
S31508002B100000000000000000000000002926000850
S31508002B2080B5FFF755FAFFF7BFFB01BD6D79546114
S31508002B30736B0000546D722053766300546D7251A6
S31508002B400000000049444C450000000080B5FFF72E
S31508002B5012FF01BDAAAAAAAA0024F400F0E300E025
S30908002B6041EEFFFF36
S7050800299F2A
